{
  "abi": [
    {
      "inputs": [
        {
          "internalType": "address",
          "name": "_wrappedPunksContract",
          "type": "address"
        },
        {
          "internalType": "uint256",
          "name": "_oraclePriceInWei",
          "type": "uint256"
        }
      ],
      "stateMutability": "nonpayable",
      "type": "constructor"
    },
    {
      "anonymous": false,
      "inputs": [
        {
          "indexed": true,
          "internalType": "uint256",
          "name": "id",
          "type": "uint256"
        },
        {
          "indexed": true,
          "internalType": "address",
          "name": "from",
          "type": "address"
        }
      ],
      "name": "CryptoPunkReceived",
      "type": "event"
    },
    {
      "anonymous": false,
      "inputs": [
        {
          "indexed": true,
          "internalType": "uint256",
          "name": "amountInWei",
          "type": "uint256"
        },
        {
          "indexed": true,
          "internalType": "address",
          "name": "from",
          "type": "address"
        }
      ],
      "name": "OracleFunded",
      "type": "event"
    },
    {
      "anonymous": false,
      "inputs": [
        {
          "indexed": true,
          "internalType": "uint256",
          "name": "priceInWei",
          "type": "uint256"
        }
      ],
      "name": "OraclePriceChanged",
      "type": "event"
    },
    {
      "inputs": [
        {
          "internalType": "address",
          "name": "",
          "type": "address"
        }
      ],
      "name": "balanceOf",
      "outputs": [
        {
          "internalType": "uint256",
          "name": "",
          "type": "uint256"
        }
      ],
      "stateMutability": "view",
      "type": "function"
    },
    {
      "inputs": [],
      "name": "fundOracle",
      "outputs": [],
      "stateMutability": "payable",
      "type": "function"
    },
    {
      "inputs": [],
      "name": "getOperator",
      "outputs": [
        {
          "internalType": "address",
          "name": "",
          "type": "address"
        }
      ],
      "stateMutability": "view",
      "type": "function"
    },
    {
      "inputs": [
        {
          "internalType": "address",
          "name": "sender",
          "type": "address"
        },
        {
          "internalType": "address",
          "name": "from",
          "type": "address"
        },
        {
          "internalType": "uint256",
          "name": "tokenId",
          "type": "uint256"
        },
        {
          "internalType": "bytes",
          "name": "data",
          "type": "bytes"
        }
      ],
      "name": "onERC721Received",
      "outputs": [
        {
          "internalType": "bytes4",
          "name": "selector",
          "type": "bytes4"
        }
      ],
      "stateMutability": "nonpayable",
      "type": "function"
    },
    {
      "inputs": [],
      "name": "oraclePriceInWei",
      "outputs": [
        {
          "internalType": "uint256",
          "name": "",
          "type": "uint256"
        }
      ],
      "stateMutability": "view",
      "type": "function"
    },
    {
      "inputs": [
        {
          "internalType": "uint256",
          "name": "priceInWei",
          "type": "uint256"
        }
      ],
      "name": "setPrice",
      "outputs": [],
      "stateMutability": "nonpayable",
      "type": "function"
    },
    {
      "inputs": [],
      "name": "wrappedPunksContract",
      "outputs": [
        {
          "internalType": "address",
          "name": "",
          "type": "address"
        }
      ],
      "stateMutability": "view",
      "type": "function"
    }
  ],
  "bytecode": "608060405234801561001057600080fd5b506040516106d93803806106d983398101604081905261002f91610066565b60008054336001600160a01b031991821617909155600180549091166001600160a01b0393909316929092179091556002556100a0565b6000806040838503121561007957600080fd5b82516001600160a01b038116811461009057600080fd5b6020939093015192949293505050565b61062a806100af6000396000f3fe6080604052600436106100705760003560e01c8063321f28f81161004e578063321f28f8146100e157806370a082311461011957806391b7f5ed14610146578063e7f43c681461016657600080fd5b8063150b7a02146100755780631e12f727146100b357806327f16f99146100bd575b600080fd5b34801561008157600080fd5b506100956100903660046104fb565b610184565b6040516001600160e01b031990911681526020015b60405180910390f35b6100bb61030c565b005b3480156100c957600080fd5b506100d360025481565b6040519081526020016100aa565b3480156100ed57600080fd5b50600154610101906001600160a01b031681565b6040516001600160a01b0390911681526020016100aa565b34801561012557600080fd5b506100d36101343660046104d9565b60036020526000908152604090205481565b34801561015257600080fd5b506100bb610161366004610596565b610417565b34801561017257600080fd5b506000546001600160a01b0316610101565b6001546000906001600160a01b031633146101fa5760405162461bcd60e51b815260206004820152602b60248201527f546865204f7261636c65206f6e6c79206163636570747320577261707065642060448201526a43727970746f50756e6b7360a81b60648201526084015b60405180910390fd5b6002546001600160a01b03861660009081526003602052604090205410156102945760405162461bcd60e51b815260206004820152604160248201527f596f75206d7573742066756e6420746865206f7261636c65207769746820746860448201527f652070726963652073657420696e20606f7261636c655072696365496e5765696064820152600360fd1b608482015260a4016101f1565b6040516001600160a01b0386169085907fc38c7fe124533978f8e6e32c0f6a1a051b08f1f519973acef1beaa3c6107e16a90600090a36002546001600160a01b038616600090815260036020526040812080549091906102f59084906105c7565b90915550630a85bd0160e11b979650505050505050565b600080546040516001600160a01b039091169034908381818185875af1925050503d8060008114610359576040519150601f19603f3d011682016040523d82523d6000602084013e61035e565b606091505b50509050806103c35760405162461bcd60e51b815260206004820152602b60248201527f4661696c656420746f2073656e6420457468657220746f20746865206f72616360448201526a36329037b832b930ba37b960a91b60648201526084016101f1565b33600090815260036020526040812080543492906103e29084906105af565b9091555050604051339034907f0f8d8f9c95aaf6177671bcc9db84b0de639a5cc30c6b673a9c82d31e6392341e90600090a350565b6000546001600160a01b0316331461048a5760405162461bcd60e51b815260206004820152603060248201527f4f6e6c7920746865206f7261636c65206f70657261746f72206d61792070657260448201526f3337b936903a3434b99030b1ba34b7b760811b60648201526084016101f1565b600281905560405181907f51c6eaaaa11f3a57f136cd3fbce664dfa4da3c42210ab46757f048532068e0ce90600090a250565b80356001600160a01b03811681146104d457600080fd5b919050565b6000602082840312156104eb57600080fd5b6104f4826104bd565b9392505050565b60008060008060006080868803121561051357600080fd5b61051c866104bd565b945061052a602087016104bd565b935060408601359250606086013567ffffffffffffffff8082111561054e57600080fd5b818801915088601f83011261056257600080fd5b81358181111561057157600080fd5b89602082850101111561058357600080fd5b9699959850939650602001949392505050565b6000602082840312156105a857600080fd5b5035919050565b600082198211156105c2576105c26105de565b500190565b6000828210156105d9576105d96105de565b500390565b634e487b7160e01b600052601160045260246000fdfea26469706673582212203829839cead7b6a04f048aac15d5934526ccdeed22838912dc4c499acd21aba564736f6c63430008060033",
  "bytecodeSha1": "56b66c59cf22993448886904fd1b2652245433d7",
  "compiler": {
    "evm_version": "istanbul",
    "optimizer": {
      "enabled": true,
      "runs": 200
    },
    "version": "0.8.6+commit.11564f7e"
  },
  "contractName": "Oracle",
  "language": "Solidity",
  "natspec": {
    "kind": "dev",
    "methods": {
      "fundOracle()": {
        "details": "Fund the Oracle to cover gas fees and other costs",
        "notice": "Check the current price by retrieving `oraclePriceInWei`"
      },
      "getOperator()": {
        "details": "Returns the current oracle operator"
      },
      "onERC721Received(address,address,uint256,bytes)": {
        "details": "Implementation of IERC721Receiver",
        "notice": "Only accepts ERC721 tokens from the `wrappedPunksContract`The sender must have already funded the oracle with the `oraclePriceInWei`"
      },
      "setPrice(uint256)": {
        "details": "Sets the price to fulfill the oracle",
        "notice": "Only oracle operators may call this function"
      }
    },
    "version": 1
  },
  "opcodes": "PUSH1 0x80 PUSH1 0x40 MSTORE PUSH1 0x4 CALLDATASIZE LT PUSH2 0x70 JUMPI PUSH1 0x0 CALLDATALOAD PUSH1 0xE0 SHR DUP1 PUSH4 0x321F28F8 GT PUSH2 0x4E JUMPI DUP1 PUSH4 0x321F28F8 EQ PUSH2 0xE1 JUMPI DUP1 PUSH4 0x70A08231 EQ PUSH2 0x119 JUMPI DUP1 PUSH4 0x91B7F5ED EQ PUSH2 0x146 JUMPI DUP1 PUSH4 0xE7F43C68 EQ PUSH2 0x166 JUMPI PUSH1 0x0 DUP1 REVERT JUMPDEST DUP1 PUSH4 0x150B7A02 EQ PUSH2 0x75 JUMPI DUP1 PUSH4 0x1E12F727 EQ PUSH2 0xB3 JUMPI DUP1 PUSH4 0x27F16F99 EQ PUSH2 0xBD JUMPI JUMPDEST PUSH1 0x0 DUP1 REVERT JUMPDEST CALLVALUE DUP1 ISZERO PUSH2 0x81 JUMPI PUSH1 0x0 DUP1 REVERT JUMPDEST POP PUSH2 0x95 PUSH2 0x90 CALLDATASIZE PUSH1 0x4 PUSH2 0x4FB JUMP JUMPDEST PUSH2 0x184 JUMP JUMPDEST PUSH1 0x40 MLOAD PUSH1 0x1 PUSH1 0x1 PUSH1 0xE0 SHL SUB NOT SWAP1 SWAP2 AND DUP2 MSTORE PUSH1 0x20 ADD JUMPDEST PUSH1 0x40 MLOAD DUP1 SWAP2 SUB SWAP1 RETURN JUMPDEST PUSH2 0xBB PUSH2 0x30C JUMP JUMPDEST STOP JUMPDEST CALLVALUE DUP1 ISZERO PUSH2 0xC9 JUMPI PUSH1 0x0 DUP1 REVERT JUMPDEST POP PUSH2 0xD3 PUSH1 0x2 SLOAD DUP2 JUMP JUMPDEST PUSH1 0x40 MLOAD SWAP1 DUP2 MSTORE PUSH1 0x20 ADD PUSH2 0xAA JUMP JUMPDEST CALLVALUE DUP1 ISZERO PUSH2 0xED JUMPI PUSH1 0x0 DUP1 REVERT JUMPDEST POP PUSH1 0x1 SLOAD PUSH2 0x101 SWAP1 PUSH1 0x1 PUSH1 0x1 PUSH1 0xA0 SHL SUB AND DUP2 JUMP JUMPDEST PUSH1 0x40 MLOAD PUSH1 0x1 PUSH1 0x1 PUSH1 0xA0 SHL SUB SWAP1 SWAP2 AND DUP2 MSTORE PUSH1 0x20 ADD PUSH2 0xAA JUMP JUMPDEST CALLVALUE DUP1 ISZERO PUSH2 0x125 JUMPI PUSH1 0x0 DUP1 REVERT JUMPDEST POP PUSH2 0xD3 PUSH2 0x134 CALLDATASIZE PUSH1 0x4 PUSH2 0x4D9 JUMP JUMPDEST PUSH1 0x3 PUSH1 0x20 MSTORE PUSH1 0x0 SWAP1 DUP2 MSTORE PUSH1 0x40 SWAP1 KECCAK256 SLOAD DUP2 JUMP JUMPDEST CALLVALUE DUP1 ISZERO PUSH2 0x152 JUMPI PUSH1 0x0 DUP1 REVERT JUMPDEST POP PUSH2 0xBB PUSH2 0x161 CALLDATASIZE PUSH1 0x4 PUSH2 0x596 JUMP JUMPDEST PUSH2 0x417 JUMP JUMPDEST CALLVALUE DUP1 ISZERO PUSH2 0x172 JUMPI PUSH1 0x0 DUP1 REVERT JUMPDEST POP PUSH1 0x0 SLOAD PUSH1 0x1 PUSH1 0x1 PUSH1 0xA0 SHL SUB AND PUSH2 0x101 JUMP JUMPDEST PUSH1 0x1 SLOAD PUSH1 0x0 SWAP1 PUSH1 0x1 PUSH1 0x1 PUSH1 0xA0 SHL SUB AND CALLER EQ PUSH2 0x1FA JUMPI PUSH1 0x40 MLOAD PUSH3 0x461BCD PUSH1 0xE5 SHL DUP2 MSTORE PUSH1 0x20 PUSH1 0x4 DUP3 ADD MSTORE PUSH1 0x2B PUSH1 0x24 DUP3 ADD MSTORE PUSH32 0x546865204F7261636C65206F6E6C792061636365707473205772617070656420 PUSH1 0x44 DUP3 ADD MSTORE PUSH11 0x43727970746F50756E6B73 PUSH1 0xA8 SHL PUSH1 0x64 DUP3 ADD MSTORE PUSH1 0x84 ADD JUMPDEST PUSH1 0x40 MLOAD DUP1 SWAP2 SUB SWAP1 REVERT JUMPDEST PUSH1 0x2 SLOAD PUSH1 0x1 PUSH1 0x1 PUSH1 0xA0 SHL SUB DUP7 AND PUSH1 0x0 SWAP1 DUP2 MSTORE PUSH1 0x3 PUSH1 0x20 MSTORE PUSH1 0x40 SWAP1 KECCAK256 SLOAD LT ISZERO PUSH2 0x294 JUMPI PUSH1 0x40 MLOAD PUSH3 0x461BCD PUSH1 0xE5 SHL DUP2 MSTORE PUSH1 0x20 PUSH1 0x4 DUP3 ADD MSTORE PUSH1 0x41 PUSH1 0x24 DUP3 ADD MSTORE PUSH32 0x596F75206D7573742066756E6420746865206F7261636C652077697468207468 PUSH1 0x44 DUP3 ADD MSTORE PUSH32 0x652070726963652073657420696E20606F7261636C655072696365496E576569 PUSH1 0x64 DUP3 ADD MSTORE PUSH1 0x3 PUSH1 0xFD SHL PUSH1 0x84 DUP3 ADD MSTORE PUSH1 0xA4 ADD PUSH2 0x1F1 JUMP JUMPDEST PUSH1 0x40 MLOAD PUSH1 0x1 PUSH1 0x1 PUSH1 0xA0 SHL SUB DUP7 AND SWAP1 DUP6 SWAP1 PUSH32 0xC38C7FE124533978F8E6E32C0F6A1A051B08F1F519973ACEF1BEAA3C6107E16A SWAP1 PUSH1 0x0 SWAP1 LOG3 PUSH1 0x2 SLOAD PUSH1 0x1 PUSH1 0x1 PUSH1 0xA0 SHL SUB DUP7 AND PUSH1 0x0 SWAP1 DUP2 MSTORE PUSH1 0x3 PUSH1 0x20 MSTORE PUSH1 0x40 DUP2 KECCAK256 DUP1 SLOAD SWAP1 SWAP2 SWAP1 PUSH2 0x2F5 SWAP1 DUP5 SWAP1 PUSH2 0x5C7 JUMP JUMPDEST SWAP1 SWAP2 SSTORE POP PUSH4 0xA85BD01 PUSH1 0xE1 SHL SWAP8 SWAP7 POP POP POP POP POP POP POP JUMP JUMPDEST PUSH1 0x0 DUP1 SLOAD PUSH1 0x40 MLOAD PUSH1 0x1 PUSH1 0x1 PUSH1 0xA0 SHL SUB SWAP1 SWAP2 AND SWAP1 CALLVALUE SWAP1 DUP4 DUP2 DUP2 DUP2 DUP6 DUP8 GAS CALL SWAP3 POP POP POP RETURNDATASIZE DUP1 PUSH1 0x0 DUP2 EQ PUSH2 0x359 JUMPI PUSH1 0x40 MLOAD SWAP2 POP PUSH1 0x1F NOT PUSH1 0x3F RETURNDATASIZE ADD AND DUP3 ADD PUSH1 0x40 MSTORE RETURNDATASIZE DUP3 MSTORE RETURNDATASIZE PUSH1 0x0 PUSH1 0x20 DUP5 ADD RETURNDATACOPY PUSH2 0x35E JUMP JUMPDEST PUSH1 0x60 SWAP2 POP JUMPDEST POP POP SWAP1 POP DUP1 PUSH2 0x3C3 JUMPI PUSH1 0x40 MLOAD PUSH3 0x461BCD PUSH1 0xE5 SHL DUP2 MSTORE PUSH1 0x20 PUSH1 0x4 DUP3 ADD MSTORE PUSH1 0x2B PUSH1 0x24 DUP3 ADD MSTORE PUSH32 0x4661696C656420746F2073656E6420457468657220746F20746865206F726163 PUSH1 0x44 DUP3 ADD MSTORE PUSH11 0x36329037B832B930BA37B9 PUSH1 0xA9 SHL PUSH1 0x64 DUP3 ADD MSTORE PUSH1 0x84 ADD PUSH2 0x1F1 JUMP JUMPDEST CALLER PUSH1 0x0 SWAP1 DUP2 MSTORE PUSH1 0x3 PUSH1 0x20 MSTORE PUSH1 0x40 DUP2 KECCAK256 DUP1 SLOAD CALLVALUE SWAP3 SWAP1 PUSH2 0x3E2 SWAP1 DUP5 SWAP1 PUSH2 0x5AF JUMP JUMPDEST SWAP1 SWAP2 SSTORE POP POP PUSH1 0x40 MLOAD CALLER SWAP1 CALLVALUE SWAP1 PUSH32 0xF8D8F9C95AAF6177671BCC9DB84B0DE639A5CC30C6B673A9C82D31E6392341E SWAP1 PUSH1 0x0 SWAP1 LOG3 POP JUMP JUMPDEST PUSH1 0x0 SLOAD PUSH1 0x1 PUSH1 0x1 PUSH1 0xA0 SHL SUB AND CALLER EQ PUSH2 0x48A JUMPI PUSH1 0x40 MLOAD PUSH3 0x461BCD PUSH1 0xE5 SHL DUP2 MSTORE PUSH1 0x20 PUSH1 0x4 DUP3 ADD MSTORE PUSH1 0x30 PUSH1 0x24 DUP3 ADD MSTORE PUSH32 0x4F6E6C7920746865206F7261636C65206F70657261746F72206D617920706572 PUSH1 0x44 DUP3 ADD MSTORE PUSH16 0x3337B936903A3434B99030B1BA34B7B7 PUSH1 0x81 SHL PUSH1 0x64 DUP3 ADD MSTORE PUSH1 0x84 ADD PUSH2 0x1F1 JUMP JUMPDEST PUSH1 0x2 DUP2 SWAP1 SSTORE PUSH1 0x40 MLOAD DUP2 SWAP1 PUSH32 0x51C6EAAAA11F3A57F136CD3FBCE664DFA4DA3C42210AB46757F048532068E0CE SWAP1 PUSH1 0x0 SWAP1 LOG2 POP JUMP JUMPDEST DUP1 CALLDATALOAD PUSH1 0x1 PUSH1 0x1 PUSH1 0xA0 SHL SUB DUP2 AND DUP2 EQ PUSH2 0x4D4 JUMPI PUSH1 0x0 DUP1 REVERT JUMPDEST SWAP2 SWAP1 POP JUMP JUMPDEST PUSH1 0x0 PUSH1 0x20 DUP3 DUP5 SUB SLT ISZERO PUSH2 0x4EB JUMPI PUSH1 0x0 DUP1 REVERT JUMPDEST PUSH2 0x4F4 DUP3 PUSH2 0x4BD JUMP JUMPDEST SWAP4 SWAP3 POP POP POP JUMP JUMPDEST PUSH1 0x0 DUP1 PUSH1 0x0 DUP1 PUSH1 0x0 PUSH1 0x80 DUP7 DUP9 SUB SLT ISZERO PUSH2 0x513 JUMPI PUSH1 0x0 DUP1 REVERT JUMPDEST PUSH2 0x51C DUP7 PUSH2 0x4BD JUMP JUMPDEST SWAP5 POP PUSH2 0x52A PUSH1 0x20 DUP8 ADD PUSH2 0x4BD JUMP JUMPDEST SWAP4 POP PUSH1 0x40 DUP7 ADD CALLDATALOAD SWAP3 POP PUSH1 0x60 DUP7 ADD CALLDATALOAD PUSH8 0xFFFFFFFFFFFFFFFF DUP1 DUP3 GT ISZERO PUSH2 0x54E JUMPI PUSH1 0x0 DUP1 REVERT JUMPDEST DUP2 DUP9 ADD SWAP2 POP DUP9 PUSH1 0x1F DUP4 ADD SLT PUSH2 0x562 JUMPI PUSH1 0x0 DUP1 REVERT JUMPDEST DUP2 CALLDATALOAD DUP2 DUP2 GT ISZERO PUSH2 0x571 JUMPI PUSH1 0x0 DUP1 REVERT JUMPDEST DUP10 PUSH1 0x20 DUP3 DUP6 ADD ADD GT ISZERO PUSH2 0x583 JUMPI PUSH1 0x0 DUP1 REVERT JUMPDEST SWAP7 SWAP10 SWAP6 SWAP9 POP SWAP4 SWAP7 POP PUSH1 0x20 ADD SWAP5 SWAP4 SWAP3 POP POP POP JUMP JUMPDEST PUSH1 0x0 PUSH1 0x20 DUP3 DUP5 SUB SLT ISZERO PUSH2 0x5A8 JUMPI PUSH1 0x0 DUP1 REVERT JUMPDEST POP CALLDATALOAD SWAP2 SWAP1 POP JUMP JUMPDEST PUSH1 0x0 DUP3 NOT DUP3 GT ISZERO PUSH2 0x5C2 JUMPI PUSH2 0x5C2 PUSH2 0x5DE JUMP JUMPDEST POP ADD SWAP1 JUMP JUMPDEST PUSH1 0x0 DUP3 DUP3 LT ISZERO PUSH2 0x5D9 JUMPI PUSH2 0x5D9 PUSH2 0x5DE JUMP JUMPDEST POP SUB SWAP1 JUMP JUMPDEST PUSH4 0x4E487B71 PUSH1 0xE0 SHL PUSH1 0x0 MSTORE PUSH1 0x11 PUSH1 0x4 MSTORE PUSH1 0x24 PUSH1 0x0 REVERT INVALID LOG2 PUSH5 0x6970667358 0x22 SLT KECCAK256 CODESIZE 0x29 DUP4 SWAP13 0xEA 0xD7 0xB6 LOG0 0x4F DIV DUP11 0xAC ISZERO 0xD5 SWAP4 GASLIMIT 0x26 0xCC 0xDE 0xED 0x22 DUP4 DUP10 SLT 0xDC 0x4C 0x49 SWAP11 0xCD 0x21 0xAB 0xA5 PUSH5 0x736F6C6343 STOP ADDMOD MOD STOP CALLER ",
  "sha1": "6a0c58abb83c8ac675c417c05118513f456674b0",
  "source": "//SPDX-License-Identifier: MIT\npragma solidity ^0.8.0;\n\nimport \"@openzeppelin/contracts/token/ERC721/IERC721Receiver.sol\";\n\n\ncontract Oracle is IERC721Receiver {\n    // The oracle operator\n    address private operator;\n\n    // The contract address of the Wrapped CryptoPunk ERC721\n    // Mainnet: 0xb7f7f6c52f2e2fdb1963eab30438024864c313f6\n    address public wrappedPunksContract;\n\n    // The cost to complete an Oracle transaction\n    uint256 public oraclePriceInWei;\n\n    // Retrieves the balance of the given address\n    mapping(address => uint256) public balanceOf;\n\n    // Emitted when a Wrapped CryptoPunk ERC721 is received\n    event CryptoPunkReceived(uint256 indexed id, address indexed from);\n\n    // Emitted when the Oracle price has changed\n    event OraclePriceChanged(uint256 indexed priceInWei);\n\n    // Emitted when somebody funds the oracle\n    event OracleFunded(uint256 indexed amountInWei, address indexed from);\n\n    constructor(address _wrappedPunksContract, uint256 _oraclePriceInWei) {\n        operator = msg.sender;\n        wrappedPunksContract = _wrappedPunksContract;\n        oraclePriceInWei = _oraclePriceInWei;\n    }\n\n    /**\n     * @dev Modifier that only oracle operators may call\n     */\n    modifier onlyOracleOperator() {\n        require(\n            msg.sender == operator,\n            \"Only the oracle operator may perform this action\"\n        );\n        _;\n    }\n\n    /**\n     * @dev Sets the price to fulfill the oracle\n     * @notice Only oracle operators may call this function\n     */\n    function setPrice(uint256 priceInWei) public onlyOracleOperator {\n        oraclePriceInWei = priceInWei;\n        emit OraclePriceChanged(priceInWei);\n    }\n\n    /**\n     * @dev Fund the Oracle to cover gas fees and other costs\n     * @notice Check the current price by retrieving `oraclePriceInWei`\n     */\n    function fundOracle() public payable {\n        (bool sent, ) = operator.call{value: msg.value}(\"\");\n        require(sent, \"Failed to send Ether to the oracle operator\");\n        balanceOf[msg.sender] += msg.value;\n        emit OracleFunded(msg.value, msg.sender);\n    }\n\n    /**\n     * @dev Implementation of IERC721Receiver\n     * @notice Only accepts ERC721 tokens from the `wrappedPunksContract`\n     * @notice The sender must have already funded the oracle with the `oraclePriceInWei`\n     */\n    function onERC721Received(\n        address sender,\n        address from,\n        uint256 tokenId,\n        bytes calldata data\n    ) public override returns (bytes4 selector) {\n        require(\n            msg.sender == address(wrappedPunksContract),\n            \"The Oracle only accepts Wrapped CryptoPunks\"\n        );\n\n        require(\n            balanceOf[from] >= oraclePriceInWei,\n            \"You must fund the oracle with the price set in `oraclePriceInWei`\"\n        );\n\n        emit CryptoPunkReceived(tokenId, from);\n        balanceOf[from] -= oraclePriceInWei;\n\n        return this.onERC721Received.selector;\n    }\n\n    /**\n     * @dev Returns the current oracle operator\n     */\n    function getOperator() external view returns(address) {\n        return operator;\n    }\n}\n",
  "sourcePath": "contracts/Oracle.sol",
  "type": "contract"
}