{
  "abi": [
    {
      "inputs": [
        {
          "internalType": "address",
          "name": "oracleAddress",
          "type": "address"
        }
      ],
      "stateMutability": "nonpayable",
      "type": "constructor"
    },
    {
      "inputs": [
        {
          "internalType": "uint256",
          "name": "punkId",
          "type": "uint256"
        }
      ],
      "name": "getSpecies",
      "outputs": [
        {
          "internalType": "enum Role.Species",
          "name": "",
          "type": "uint8"
        }
      ],
      "stateMutability": "nonpayable",
      "type": "function"
    },
    {
      "inputs": [
        {
          "internalType": "enum Role.Species",
          "name": "species",
          "type": "uint8"
        },
        {
          "internalType": "enum Role.Size",
          "name": "size",
          "type": "uint8"
        },
        {
          "internalType": "enum Role.Ear",
          "name": "ear",
          "type": "uint8"
        },
        {
          "internalType": "enum Role.Eyes",
          "name": "eyes",
          "type": "uint8"
        },
        {
          "internalType": "enum Role.Face",
          "name": "face",
          "type": "uint8"
        },
        {
          "internalType": "enum Role.FacialHair",
          "name": "facialHair",
          "type": "uint8"
        },
        {
          "internalType": "enum Role.Head",
          "name": "head",
          "type": "uint8"
        },
        {
          "internalType": "enum Role.Mouth",
          "name": "mouth",
          "type": "uint8"
        },
        {
          "internalType": "enum Role.Neck",
          "name": "neck",
          "type": "uint8"
        },
        {
          "internalType": "enum Role.Nose",
          "name": "nose",
          "type": "uint8"
        },
        {
          "internalType": "enum Role.Smoke",
          "name": "smoke",
          "type": "uint8"
        }
      ],
      "name": "mint",
      "outputs": [],
      "stateMutability": "nonpayable",
      "type": "function"
    },
    {
      "inputs": [],
      "name": "oracle",
      "outputs": [
        {
          "internalType": "contract Oracle",
          "name": "",
          "type": "address"
        }
      ],
      "stateMutability": "view",
      "type": "function"
    },
    {
      "inputs": [
        {
          "internalType": "uint256",
          "name": "",
          "type": "uint256"
        }
      ],
      "name": "punks",
      "outputs": [
        {
          "internalType": "enum Role.Species",
          "name": "species",
          "type": "uint8"
        },
        {
          "internalType": "enum Role.Size",
          "name": "size",
          "type": "uint8"
        },
        {
          "internalType": "enum Role.Ear",
          "name": "ear",
          "type": "uint8"
        },
        {
          "internalType": "enum Role.Eyes",
          "name": "eyes",
          "type": "uint8"
        },
        {
          "internalType": "enum Role.Face",
          "name": "face",
          "type": "uint8"
        },
        {
          "internalType": "enum Role.FacialHair",
          "name": "facial_hair",
          "type": "uint8"
        },
        {
          "internalType": "enum Role.Head",
          "name": "head",
          "type": "uint8"
        },
        {
          "internalType": "enum Role.Mouth",
          "name": "mouth",
          "type": "uint8"
        },
        {
          "internalType": "enum Role.Neck",
          "name": "neck",
          "type": "uint8"
        },
        {
          "internalType": "enum Role.Nose",
          "name": "nose",
          "type": "uint8"
        },
        {
          "internalType": "enum Role.Smoke",
          "name": "smoke",
          "type": "uint8"
        }
      ],
      "stateMutability": "view",
      "type": "function"
    }
  ],
  "bytecode": "608060405234801561001057600080fd5b5060405161099c38038061099c83398101604081905261002f91610054565b600080546001600160a01b0319166001600160a01b0392909216919091179055610084565b60006020828403121561006657600080fd5b81516001600160a01b038116811461007d57600080fd5b9392505050565b610909806100936000396000f3fe608060405234801561001057600080fd5b506004361061004c5760003560e01c80632be6a2a9146100515780636cae2e161461007a57806376a170621461008f5780637dc0d1d0146100b9575b600080fd5b61006461005f36600461073c565b6100e4565b604051610071919061079b565b60405180910390f35b61008d610088366004610664565b61010e565b005b6100a261009d36600461073c565b610552565b6040516100719b9a999897969594939291906107ae565b6000546100cc906001600160a01b031681565b6040516001600160a01b039091168152602001610071565b6000600182815481106100f9576100f9610880565b60009182526020909120015460ff1692915050565b60008054906101000a90046001600160a01b03166001600160a01b031663570ca7356040518163ffffffff1660e01b815260040160206040518083038186803b15801561015a57600080fd5b505afa15801561016e573d6000803e3d6000fd5b505050506040513d601f19601f820116820180604052508101906101929190610634565b6001600160a01b0316336001600160a01b03161461020f5760405162461bcd60e51b815260206004820152603060248201527f4f6e6c7920746865206f7261636c65206f70657261746f72206d61792070657260448201526f3337b936903a3434b99030b1ba34b7b760811b606482015260840160405180910390fd5b60006040518061016001604052808d600381111561022f5761022f61086a565b81526020018c60018111156102465761024661086a565b81526020018b600181111561025d5761025d61086a565b81526020018a60108111156102745761027461086a565b815260200189600481111561028b5761028b61086a565b815260200188600c8111156102a2576102a261086a565b81526020018760288111156102b9576102b961086a565b81526020018660078111156102d0576102d061086a565b81526020018560038111156102e7576102e761086a565b81526020018460018111156102fe576102fe61086a565b81526020018360038111156103155761031561086a565b9052600180548082018255600082905282517fb10e2d527612073b26eecdfd717e6a320cf44b4afac2b0732d9fcbe2b7fa0cf6909101805493945084939092839160ff19169083600381111561036d5761036d61086a565b021790555060208201518154829061ff0019166101008360018111156103955761039561086a565b021790555060408201518154829062ff00001916620100008360018111156103bf576103bf61086a565b021790555060608201518154829063ff000000191663010000008360108111156103eb576103eb61086a565b021790555060808201518154829064ff0000000019166401000000008360048111156104195761041961086a565b021790555060a08201518154829065ff000000000019166501000000000083600c8111156104495761044961086a565b021790555060c08201518154829066ff0000000000001916660100000000000083602881111561047b5761047b61086a565b021790555060e08201518154829067ff000000000000001916600160381b8360078111156104ab576104ab61086a565b02179055506101008201518154829068ff00000000000000001916600160401b8360038111156104dd576104dd61086a565b02179055506101208201518154829069ff0000000000000000001916600160481b8360018111156105105761051061086a565b02179055506101408201518154829060ff60501b1916600160501b83600381111561053d5761053d61086a565b02179055505050505050505050505050505050565b6001818154811061056257600080fd5b60009182526020909120015460ff8082169250610100820481169162010000810482169163010000008204811691640100000000810482169165010000000000820481169166010000000000008104821691600160381b8204811691600160401b8104821691600160481b8204811691600160501b9004168b565b80356105e8816108b9565b919050565b8035600581106105e857600080fd5b8035600d81106105e857600080fd5b8035602981106105e857600080fd5b8035600881106105e857600080fd5b80356105e8816108c6565b60006020828403121561064657600080fd5b81516001600160a01b038116811461065d57600080fd5b9392505050565b60008060008060008060008060008060006101608c8e03121561068657600080fd5b8b35610691816108c6565b9a5060208c01356106a1816108b9565b995060408c01356106b1816108b9565b985060608c0135601181106106c557600080fd5b97506106d360808d016105ed565b96506106e160a08d016105fc565b95506106ef60c08d0161060b565b94506106fd60e08d0161061a565b935061070c6101008d01610629565b925061071b6101208d016105dd565b915061072a6101408d01610629565b90509295989b509295989b9093969950565b60006020828403121561074e57600080fd5b5035919050565b600d81106107655761076561086a565b9052565b602981106107655761076561086a565b600881106107655761076561086a565b610765816108a9565b61076581610896565b602081016107a8836108a9565b91905290565b61016081016107bc8d6108a9565b8c82526107c88c610896565b8b60208301526107d78b610896565b8a604083015260118a106107ed576107ed61086a565b896060830152600589106108035761080361086a565b88608083015261081660a0830189610755565b61082360c0830188610769565b61083060e0830187610779565b61083e610100830186610789565b61084c610120830185610792565b61085a610140830184610789565b9c9b505050505050505050505050565b634e487b7160e01b600052602160045260246000fd5b634e487b7160e01b600052603260045260246000fd5b600281106108a6576108a661086a565b50565b600481106108a6576108a661086a565b600281106108a657600080fd5b600481106108a657600080fdfea2646970667358221220f1ee8e8cefd6676064a62c3cc768a53e4858f3d0d1be0e85ad723c36cef50f3764736f6c63430008060033",
  "bytecodeSha1": "d54cf8bf37153eb3790bf1b90e0c2a7768aedd68",
  "compiler": {
    "evm_version": "istanbul",
    "optimizer": {
      "enabled": true,
      "runs": 200
    },
    "version": "0.8.6+commit.11564f7e"
  },
  "contractName": "Role",
  "language": "Solidity",
  "natspec": {
    "details": "Defines the structure of a Punk NFT and can accept loot items",
    "kind": "dev",
    "methods": {
      "mint(uint8,uint8,uint8,uint8,uint8,uint8,uint8,uint8,uint8,uint8,uint8)": {
        "details": "Mints a new Punk given all slots",
        "notice": "Only oracle operators may call this"
      }
    },
    "notice": "This contract is not in use yet but will be a reference for constructing a NFT from loot items in the future.",
    "version": 1
  },
  "opcodes": "PUSH1 0x80 PUSH1 0x40 MSTORE CALLVALUE DUP1 ISZERO PUSH2 0x10 JUMPI PUSH1 0x0 DUP1 REVERT JUMPDEST POP PUSH1 0x4 CALLDATASIZE LT PUSH2 0x4C JUMPI PUSH1 0x0 CALLDATALOAD PUSH1 0xE0 SHR DUP1 PUSH4 0x2BE6A2A9 EQ PUSH2 0x51 JUMPI DUP1 PUSH4 0x6CAE2E16 EQ PUSH2 0x7A JUMPI DUP1 PUSH4 0x76A17062 EQ PUSH2 0x8F JUMPI DUP1 PUSH4 0x7DC0D1D0 EQ PUSH2 0xB9 JUMPI JUMPDEST PUSH1 0x0 DUP1 REVERT JUMPDEST PUSH2 0x64 PUSH2 0x5F CALLDATASIZE PUSH1 0x4 PUSH2 0x73C JUMP JUMPDEST PUSH2 0xE4 JUMP JUMPDEST PUSH1 0x40 MLOAD PUSH2 0x71 SWAP2 SWAP1 PUSH2 0x79B JUMP JUMPDEST PUSH1 0x40 MLOAD DUP1 SWAP2 SUB SWAP1 RETURN JUMPDEST PUSH2 0x8D PUSH2 0x88 CALLDATASIZE PUSH1 0x4 PUSH2 0x664 JUMP JUMPDEST PUSH2 0x10E JUMP JUMPDEST STOP JUMPDEST PUSH2 0xA2 PUSH2 0x9D CALLDATASIZE PUSH1 0x4 PUSH2 0x73C JUMP JUMPDEST PUSH2 0x552 JUMP JUMPDEST PUSH1 0x40 MLOAD PUSH2 0x71 SWAP12 SWAP11 SWAP10 SWAP9 SWAP8 SWAP7 SWAP6 SWAP5 SWAP4 SWAP3 SWAP2 SWAP1 PUSH2 0x7AE JUMP JUMPDEST PUSH1 0x0 SLOAD PUSH2 0xCC SWAP1 PUSH1 0x1 PUSH1 0x1 PUSH1 0xA0 SHL SUB AND DUP2 JUMP JUMPDEST PUSH1 0x40 MLOAD PUSH1 0x1 PUSH1 0x1 PUSH1 0xA0 SHL SUB SWAP1 SWAP2 AND DUP2 MSTORE PUSH1 0x20 ADD PUSH2 0x71 JUMP JUMPDEST PUSH1 0x0 PUSH1 0x1 DUP3 DUP2 SLOAD DUP2 LT PUSH2 0xF9 JUMPI PUSH2 0xF9 PUSH2 0x880 JUMP JUMPDEST PUSH1 0x0 SWAP2 DUP3 MSTORE PUSH1 0x20 SWAP1 SWAP2 KECCAK256 ADD SLOAD PUSH1 0xFF AND SWAP3 SWAP2 POP POP JUMP JUMPDEST PUSH1 0x0 DUP1 SLOAD SWAP1 PUSH2 0x100 EXP SWAP1 DIV PUSH1 0x1 PUSH1 0x1 PUSH1 0xA0 SHL SUB AND PUSH1 0x1 PUSH1 0x1 PUSH1 0xA0 SHL SUB AND PUSH4 0x570CA735 PUSH1 0x40 MLOAD DUP2 PUSH4 0xFFFFFFFF AND PUSH1 0xE0 SHL DUP2 MSTORE PUSH1 0x4 ADD PUSH1 0x20 PUSH1 0x40 MLOAD DUP1 DUP4 SUB DUP2 DUP7 DUP1 EXTCODESIZE ISZERO DUP1 ISZERO PUSH2 0x15A JUMPI PUSH1 0x0 DUP1 REVERT JUMPDEST POP GAS STATICCALL ISZERO DUP1 ISZERO PUSH2 0x16E JUMPI RETURNDATASIZE PUSH1 0x0 DUP1 RETURNDATACOPY RETURNDATASIZE PUSH1 0x0 REVERT JUMPDEST POP POP POP POP PUSH1 0x40 MLOAD RETURNDATASIZE PUSH1 0x1F NOT PUSH1 0x1F DUP3 ADD AND DUP3 ADD DUP1 PUSH1 0x40 MSTORE POP DUP2 ADD SWAP1 PUSH2 0x192 SWAP2 SWAP1 PUSH2 0x634 JUMP JUMPDEST PUSH1 0x1 PUSH1 0x1 PUSH1 0xA0 SHL SUB AND CALLER PUSH1 0x1 PUSH1 0x1 PUSH1 0xA0 SHL SUB AND EQ PUSH2 0x20F JUMPI PUSH1 0x40 MLOAD PUSH3 0x461BCD PUSH1 0xE5 SHL DUP2 MSTORE PUSH1 0x20 PUSH1 0x4 DUP3 ADD MSTORE PUSH1 0x30 PUSH1 0x24 DUP3 ADD MSTORE PUSH32 0x4F6E6C7920746865206F7261636C65206F70657261746F72206D617920706572 PUSH1 0x44 DUP3 ADD MSTORE PUSH16 0x3337B936903A3434B99030B1BA34B7B7 PUSH1 0x81 SHL PUSH1 0x64 DUP3 ADD MSTORE PUSH1 0x84 ADD PUSH1 0x40 MLOAD DUP1 SWAP2 SUB SWAP1 REVERT JUMPDEST PUSH1 0x0 PUSH1 0x40 MLOAD DUP1 PUSH2 0x160 ADD PUSH1 0x40 MSTORE DUP1 DUP14 PUSH1 0x3 DUP2 GT ISZERO PUSH2 0x22F JUMPI PUSH2 0x22F PUSH2 0x86A JUMP JUMPDEST DUP2 MSTORE PUSH1 0x20 ADD DUP13 PUSH1 0x1 DUP2 GT ISZERO PUSH2 0x246 JUMPI PUSH2 0x246 PUSH2 0x86A JUMP JUMPDEST DUP2 MSTORE PUSH1 0x20 ADD DUP12 PUSH1 0x1 DUP2 GT ISZERO PUSH2 0x25D JUMPI PUSH2 0x25D PUSH2 0x86A JUMP JUMPDEST DUP2 MSTORE PUSH1 0x20 ADD DUP11 PUSH1 0x10 DUP2 GT ISZERO PUSH2 0x274 JUMPI PUSH2 0x274 PUSH2 0x86A JUMP JUMPDEST DUP2 MSTORE PUSH1 0x20 ADD DUP10 PUSH1 0x4 DUP2 GT ISZERO PUSH2 0x28B JUMPI PUSH2 0x28B PUSH2 0x86A JUMP JUMPDEST DUP2 MSTORE PUSH1 0x20 ADD DUP9 PUSH1 0xC DUP2 GT ISZERO PUSH2 0x2A2 JUMPI PUSH2 0x2A2 PUSH2 0x86A JUMP JUMPDEST DUP2 MSTORE PUSH1 0x20 ADD DUP8 PUSH1 0x28 DUP2 GT ISZERO PUSH2 0x2B9 JUMPI PUSH2 0x2B9 PUSH2 0x86A JUMP JUMPDEST DUP2 MSTORE PUSH1 0x20 ADD DUP7 PUSH1 0x7 DUP2 GT ISZERO PUSH2 0x2D0 JUMPI PUSH2 0x2D0 PUSH2 0x86A JUMP JUMPDEST DUP2 MSTORE PUSH1 0x20 ADD DUP6 PUSH1 0x3 DUP2 GT ISZERO PUSH2 0x2E7 JUMPI PUSH2 0x2E7 PUSH2 0x86A JUMP JUMPDEST DUP2 MSTORE PUSH1 0x20 ADD DUP5 PUSH1 0x1 DUP2 GT ISZERO PUSH2 0x2FE JUMPI PUSH2 0x2FE PUSH2 0x86A JUMP JUMPDEST DUP2 MSTORE PUSH1 0x20 ADD DUP4 PUSH1 0x3 DUP2 GT ISZERO PUSH2 0x315 JUMPI PUSH2 0x315 PUSH2 0x86A JUMP JUMPDEST SWAP1 MSTORE PUSH1 0x1 DUP1 SLOAD DUP1 DUP3 ADD DUP3 SSTORE PUSH1 0x0 DUP3 SWAP1 MSTORE DUP3 MLOAD PUSH32 0xB10E2D527612073B26EECDFD717E6A320CF44B4AFAC2B0732D9FCBE2B7FA0CF6 SWAP1 SWAP2 ADD DUP1 SLOAD SWAP4 SWAP5 POP DUP5 SWAP4 SWAP1 SWAP3 DUP4 SWAP2 PUSH1 0xFF NOT AND SWAP1 DUP4 PUSH1 0x3 DUP2 GT ISZERO PUSH2 0x36D JUMPI PUSH2 0x36D PUSH2 0x86A JUMP JUMPDEST MUL OR SWAP1 SSTORE POP PUSH1 0x20 DUP3 ADD MLOAD DUP2 SLOAD DUP3 SWAP1 PUSH2 0xFF00 NOT AND PUSH2 0x100 DUP4 PUSH1 0x1 DUP2 GT ISZERO PUSH2 0x395 JUMPI PUSH2 0x395 PUSH2 0x86A JUMP JUMPDEST MUL OR SWAP1 SSTORE POP PUSH1 0x40 DUP3 ADD MLOAD DUP2 SLOAD DUP3 SWAP1 PUSH3 0xFF0000 NOT AND PUSH3 0x10000 DUP4 PUSH1 0x1 DUP2 GT ISZERO PUSH2 0x3BF JUMPI PUSH2 0x3BF PUSH2 0x86A JUMP JUMPDEST MUL OR SWAP1 SSTORE POP PUSH1 0x60 DUP3 ADD MLOAD DUP2 SLOAD DUP3 SWAP1 PUSH4 0xFF000000 NOT AND PUSH4 0x1000000 DUP4 PUSH1 0x10 DUP2 GT ISZERO PUSH2 0x3EB JUMPI PUSH2 0x3EB PUSH2 0x86A JUMP JUMPDEST MUL OR SWAP1 SSTORE POP PUSH1 0x80 DUP3 ADD MLOAD DUP2 SLOAD DUP3 SWAP1 PUSH5 0xFF00000000 NOT AND PUSH5 0x100000000 DUP4 PUSH1 0x4 DUP2 GT ISZERO PUSH2 0x419 JUMPI PUSH2 0x419 PUSH2 0x86A JUMP JUMPDEST MUL OR SWAP1 SSTORE POP PUSH1 0xA0 DUP3 ADD MLOAD DUP2 SLOAD DUP3 SWAP1 PUSH6 0xFF0000000000 NOT AND PUSH6 0x10000000000 DUP4 PUSH1 0xC DUP2 GT ISZERO PUSH2 0x449 JUMPI PUSH2 0x449 PUSH2 0x86A JUMP JUMPDEST MUL OR SWAP1 SSTORE POP PUSH1 0xC0 DUP3 ADD MLOAD DUP2 SLOAD DUP3 SWAP1 PUSH7 0xFF000000000000 NOT AND PUSH7 0x1000000000000 DUP4 PUSH1 0x28 DUP2 GT ISZERO PUSH2 0x47B JUMPI PUSH2 0x47B PUSH2 0x86A JUMP JUMPDEST MUL OR SWAP1 SSTORE POP PUSH1 0xE0 DUP3 ADD MLOAD DUP2 SLOAD DUP3 SWAP1 PUSH8 0xFF00000000000000 NOT AND PUSH1 0x1 PUSH1 0x38 SHL DUP4 PUSH1 0x7 DUP2 GT ISZERO PUSH2 0x4AB JUMPI PUSH2 0x4AB PUSH2 0x86A JUMP JUMPDEST MUL OR SWAP1 SSTORE POP PUSH2 0x100 DUP3 ADD MLOAD DUP2 SLOAD DUP3 SWAP1 PUSH9 0xFF0000000000000000 NOT AND PUSH1 0x1 PUSH1 0x40 SHL DUP4 PUSH1 0x3 DUP2 GT ISZERO PUSH2 0x4DD JUMPI PUSH2 0x4DD PUSH2 0x86A JUMP JUMPDEST MUL OR SWAP1 SSTORE POP PUSH2 0x120 DUP3 ADD MLOAD DUP2 SLOAD DUP3 SWAP1 PUSH10 0xFF000000000000000000 NOT AND PUSH1 0x1 PUSH1 0x48 SHL DUP4 PUSH1 0x1 DUP2 GT ISZERO PUSH2 0x510 JUMPI PUSH2 0x510 PUSH2 0x86A JUMP JUMPDEST MUL OR SWAP1 SSTORE POP PUSH2 0x140 DUP3 ADD MLOAD DUP2 SLOAD DUP3 SWAP1 PUSH1 0xFF PUSH1 0x50 SHL NOT AND PUSH1 0x1 PUSH1 0x50 SHL DUP4 PUSH1 0x3 DUP2 GT ISZERO PUSH2 0x53D JUMPI PUSH2 0x53D PUSH2 0x86A JUMP JUMPDEST MUL OR SWAP1 SSTORE POP POP POP POP POP POP POP POP POP POP POP POP POP POP POP JUMP JUMPDEST PUSH1 0x1 DUP2 DUP2 SLOAD DUP2 LT PUSH2 0x562 JUMPI PUSH1 0x0 DUP1 REVERT JUMPDEST PUSH1 0x0 SWAP2 DUP3 MSTORE PUSH1 0x20 SWAP1 SWAP2 KECCAK256 ADD SLOAD PUSH1 0xFF DUP1 DUP3 AND SWAP3 POP PUSH2 0x100 DUP3 DIV DUP2 AND SWAP2 PUSH3 0x10000 DUP2 DIV DUP3 AND SWAP2 PUSH4 0x1000000 DUP3 DIV DUP2 AND SWAP2 PUSH5 0x100000000 DUP2 DIV DUP3 AND SWAP2 PUSH6 0x10000000000 DUP3 DIV DUP2 AND SWAP2 PUSH7 0x1000000000000 DUP2 DIV DUP3 AND SWAP2 PUSH1 0x1 PUSH1 0x38 SHL DUP3 DIV DUP2 AND SWAP2 PUSH1 0x1 PUSH1 0x40 SHL DUP2 DIV DUP3 AND SWAP2 PUSH1 0x1 PUSH1 0x48 SHL DUP3 DIV DUP2 AND SWAP2 PUSH1 0x1 PUSH1 0x50 SHL SWAP1 DIV AND DUP12 JUMP JUMPDEST DUP1 CALLDATALOAD PUSH2 0x5E8 DUP2 PUSH2 0x8B9 JUMP JUMPDEST SWAP2 SWAP1 POP JUMP JUMPDEST DUP1 CALLDATALOAD PUSH1 0x5 DUP2 LT PUSH2 0x5E8 JUMPI PUSH1 0x0 DUP1 REVERT JUMPDEST DUP1 CALLDATALOAD PUSH1 0xD DUP2 LT PUSH2 0x5E8 JUMPI PUSH1 0x0 DUP1 REVERT JUMPDEST DUP1 CALLDATALOAD PUSH1 0x29 DUP2 LT PUSH2 0x5E8 JUMPI PUSH1 0x0 DUP1 REVERT JUMPDEST DUP1 CALLDATALOAD PUSH1 0x8 DUP2 LT PUSH2 0x5E8 JUMPI PUSH1 0x0 DUP1 REVERT JUMPDEST DUP1 CALLDATALOAD PUSH2 0x5E8 DUP2 PUSH2 0x8C6 JUMP JUMPDEST PUSH1 0x0 PUSH1 0x20 DUP3 DUP5 SUB SLT ISZERO PUSH2 0x646 JUMPI PUSH1 0x0 DUP1 REVERT JUMPDEST DUP2 MLOAD PUSH1 0x1 PUSH1 0x1 PUSH1 0xA0 SHL SUB DUP2 AND DUP2 EQ PUSH2 0x65D JUMPI PUSH1 0x0 DUP1 REVERT JUMPDEST SWAP4 SWAP3 POP POP POP JUMP JUMPDEST PUSH1 0x0 DUP1 PUSH1 0x0 DUP1 PUSH1 0x0 DUP1 PUSH1 0x0 DUP1 PUSH1 0x0 DUP1 PUSH1 0x0 PUSH2 0x160 DUP13 DUP15 SUB SLT ISZERO PUSH2 0x686 JUMPI PUSH1 0x0 DUP1 REVERT JUMPDEST DUP12 CALLDATALOAD PUSH2 0x691 DUP2 PUSH2 0x8C6 JUMP JUMPDEST SWAP11 POP PUSH1 0x20 DUP13 ADD CALLDATALOAD PUSH2 0x6A1 DUP2 PUSH2 0x8B9 JUMP JUMPDEST SWAP10 POP PUSH1 0x40 DUP13 ADD CALLDATALOAD PUSH2 0x6B1 DUP2 PUSH2 0x8B9 JUMP JUMPDEST SWAP9 POP PUSH1 0x60 DUP13 ADD CALLDATALOAD PUSH1 0x11 DUP2 LT PUSH2 0x6C5 JUMPI PUSH1 0x0 DUP1 REVERT JUMPDEST SWAP8 POP PUSH2 0x6D3 PUSH1 0x80 DUP14 ADD PUSH2 0x5ED JUMP JUMPDEST SWAP7 POP PUSH2 0x6E1 PUSH1 0xA0 DUP14 ADD PUSH2 0x5FC JUMP JUMPDEST SWAP6 POP PUSH2 0x6EF PUSH1 0xC0 DUP14 ADD PUSH2 0x60B JUMP JUMPDEST SWAP5 POP PUSH2 0x6FD PUSH1 0xE0 DUP14 ADD PUSH2 0x61A JUMP JUMPDEST SWAP4 POP PUSH2 0x70C PUSH2 0x100 DUP14 ADD PUSH2 0x629 JUMP JUMPDEST SWAP3 POP PUSH2 0x71B PUSH2 0x120 DUP14 ADD PUSH2 0x5DD JUMP JUMPDEST SWAP2 POP PUSH2 0x72A PUSH2 0x140 DUP14 ADD PUSH2 0x629 JUMP JUMPDEST SWAP1 POP SWAP3 SWAP6 SWAP9 SWAP12 POP SWAP3 SWAP6 SWAP9 SWAP12 SWAP1 SWAP4 SWAP7 SWAP10 POP JUMP JUMPDEST PUSH1 0x0 PUSH1 0x20 DUP3 DUP5 SUB SLT ISZERO PUSH2 0x74E JUMPI PUSH1 0x0 DUP1 REVERT JUMPDEST POP CALLDATALOAD SWAP2 SWAP1 POP JUMP JUMPDEST PUSH1 0xD DUP2 LT PUSH2 0x765 JUMPI PUSH2 0x765 PUSH2 0x86A JUMP JUMPDEST SWAP1 MSTORE JUMP JUMPDEST PUSH1 0x29 DUP2 LT PUSH2 0x765 JUMPI PUSH2 0x765 PUSH2 0x86A JUMP JUMPDEST PUSH1 0x8 DUP2 LT PUSH2 0x765 JUMPI PUSH2 0x765 PUSH2 0x86A JUMP JUMPDEST PUSH2 0x765 DUP2 PUSH2 0x8A9 JUMP JUMPDEST PUSH2 0x765 DUP2 PUSH2 0x896 JUMP JUMPDEST PUSH1 0x20 DUP2 ADD PUSH2 0x7A8 DUP4 PUSH2 0x8A9 JUMP JUMPDEST SWAP2 SWAP1 MSTORE SWAP1 JUMP JUMPDEST PUSH2 0x160 DUP2 ADD PUSH2 0x7BC DUP14 PUSH2 0x8A9 JUMP JUMPDEST DUP13 DUP3 MSTORE PUSH2 0x7C8 DUP13 PUSH2 0x896 JUMP JUMPDEST DUP12 PUSH1 0x20 DUP4 ADD MSTORE PUSH2 0x7D7 DUP12 PUSH2 0x896 JUMP JUMPDEST DUP11 PUSH1 0x40 DUP4 ADD MSTORE PUSH1 0x11 DUP11 LT PUSH2 0x7ED JUMPI PUSH2 0x7ED PUSH2 0x86A JUMP JUMPDEST DUP10 PUSH1 0x60 DUP4 ADD MSTORE PUSH1 0x5 DUP10 LT PUSH2 0x803 JUMPI PUSH2 0x803 PUSH2 0x86A JUMP JUMPDEST DUP9 PUSH1 0x80 DUP4 ADD MSTORE PUSH2 0x816 PUSH1 0xA0 DUP4 ADD DUP10 PUSH2 0x755 JUMP JUMPDEST PUSH2 0x823 PUSH1 0xC0 DUP4 ADD DUP9 PUSH2 0x769 JUMP JUMPDEST PUSH2 0x830 PUSH1 0xE0 DUP4 ADD DUP8 PUSH2 0x779 JUMP JUMPDEST PUSH2 0x83E PUSH2 0x100 DUP4 ADD DUP7 PUSH2 0x789 JUMP JUMPDEST PUSH2 0x84C PUSH2 0x120 DUP4 ADD DUP6 PUSH2 0x792 JUMP JUMPDEST PUSH2 0x85A PUSH2 0x140 DUP4 ADD DUP5 PUSH2 0x789 JUMP JUMPDEST SWAP13 SWAP12 POP POP POP POP POP POP POP POP POP POP POP POP JUMP JUMPDEST PUSH4 0x4E487B71 PUSH1 0xE0 SHL PUSH1 0x0 MSTORE PUSH1 0x21 PUSH1 0x4 MSTORE PUSH1 0x24 PUSH1 0x0 REVERT JUMPDEST PUSH4 0x4E487B71 PUSH1 0xE0 SHL PUSH1 0x0 MSTORE PUSH1 0x32 PUSH1 0x4 MSTORE PUSH1 0x24 PUSH1 0x0 REVERT JUMPDEST PUSH1 0x2 DUP2 LT PUSH2 0x8A6 JUMPI PUSH2 0x8A6 PUSH2 0x86A JUMP JUMPDEST POP JUMP JUMPDEST PUSH1 0x4 DUP2 LT PUSH2 0x8A6 JUMPI PUSH2 0x8A6 PUSH2 0x86A JUMP JUMPDEST PUSH1 0x2 DUP2 LT PUSH2 0x8A6 JUMPI PUSH1 0x0 DUP1 REVERT JUMPDEST PUSH1 0x4 DUP2 LT PUSH2 0x8A6 JUMPI PUSH1 0x0 DUP1 REVERT INVALID LOG2 PUSH5 0x6970667358 0x22 SLT KECCAK256 CALL 0xEE DUP15 DUP13 0xEF 0xD6 PUSH8 0x6064A62C3CC768A5 RETURNDATACOPY 0x48 PC RETURN 0xD0 0xD1 0xBE 0xE DUP6 0xAD PUSH19 0x3C36CEF50F3764736F6C634300080600330000 ",
  "sha1": "2f5de8cbbfb4fefb079c7989bc9e857191c45349",
  "source": "//SPDX-License-Identifier: MIT\npragma solidity ^0.8.0;\n\nimport \"./Oracle.sol\";\n\n/**\n * @dev Defines the structure of a Punk NFT and can accept loot items\n * @notice This contract is not in use yet but will be a reference for\n * constructing a NFT from loot items in the future.\n */\ncontract Role {\n    enum Species {\n        ALIEN,\n        APE,\n        HUMAN,\n        ZOMBIE\n    }\n\n    enum Size {\n        LARGE,\n        PETITE\n    }\n\n    enum Skin {\n        DARK,\n        DARKER,\n        LIGHT,\n        LIGHTER\n    }\n\n    enum Ear {\n        NONE,\n        EARRING\n    }\n\n    enum Eyes {\n        NONE,\n        BIG_SHADES,\n        BLUE_EYE_SHADOW,\n        CLASSIC_SHADES,\n        CLOWN_EYES_BLUE,\n        CLOWN_EYES_GREEN,\n        EYE_MASK,\n        EYE_PATCH,\n        GREEN_EYE_SHADOW,\n        HORNED_RIM_GLASSES,\n        NERD_GLASSES,\n        PURPLE_EYE_SHADOW,\n        REGULAR_SHADES,\n        SMALL_SHADES,\n        THREE_D_GLASSES,\n        VR,\n        WELDING_GOGGLES\n    }\n\n    enum Face {\n        NONE,\n        MOLE,\n        ROSY_CHEEKS,\n        SPOTS,\n        VAMPIRE_HAIR\n    }\n\n    enum FacialHair {\n        NONE,\n        BIG_BEARD,\n        CHINSTRAP,\n        FRONT_BEARD,\n        FRONT_BEARD_DARK,\n        GOAT,\n        HANDLEBARS,\n        LUXURIOUS_BEARD,\n        MUSTACHE,\n        MUTTONCHOPS,\n        NORMAL_BEARD,\n        NORMAL_BEARD_BLACK,\n        SHADOW_BEARD\n    }\n\n    enum Head {\n        NONE,\n        BANDANA,\n        BEANIE,\n        BLONDE_BOB,\n        BLONDE_SHORT,\n        CAP,\n        CAP_FORWARD,\n        CLOWN_HAIR_GREEN,\n        COWBOY_HAT,\n        CRAZY_HAIR,\n        DARK_HAIR,\n        DO_RAG,\n        FEDORA,\n        FRUMPY_HAIR,\n        HALF_SHAVED,\n        HEADBAND,\n        HOODIE,\n        KNITTED_CAP,\n        MESSY_HAIR,\n        MOHAWK,\n        MOHAWK_DARK,\n        MOHAWK_THIN,\n        ORANGE_SIDE,\n        PEAK_SPIKE,\n        PIGTAILS,\n        PILOT_HELMET,\n        PINK_WITH_HAT,\n        POLICE_CAP,\n        PURPLE_HAIR,\n        RED_MOHAWK,\n        SHAVED_HEAD,\n        STRAIGHT_HAIR,\n        STRAIGHT_HAIR_BLONDE,\n        STRAIGHT_HAIR_DARK,\n        STRINGY_HAIR,\n        TASSLE_HAT,\n        TIARA,\n        TOP_HAT,\n        WILD_BLONDE,\n        WILD_HAIR,\n        WILD_WHITE_HAIR\n    }\n\n    enum Mouth {\n        NONE,\n        BLACK_LIPSTICK,\n        BUCK_TEETH,\n        FROWN,\n        HOT_LIPSTICK,\n        MEDICAL_MASK,\n        PURPLE_LIPSTICK,\n        SMILE\n    }\n\n    enum Neck {\n        NONE,\n        CHOKER,\n        GOLD_CHAIN,\n        SILVER_CHAIN\n    }\n\n    enum Nose {\n        NONE,\n        CLOWN_NOSE\n    }\n\n    enum Smoke {\n        NONE,\n        CIGARETTE,\n        PIPE,\n        VAPE\n    }\n\n    struct Punk {\n        Species species;\n        Size size;\n        Ear ear;\n        Eyes eyes;\n        Face face;\n        FacialHair facial_hair;\n        Head head;\n        Mouth mouth;\n        Neck neck;\n        Nose nose;\n        Smoke smoke;\n    }\n\n    // The Oracle contract\n    Oracle public oracle;\n\n    // A list of Punks\n    Punk[] public punks;\n\n    constructor(address oracleAddress) {\n        oracle = Oracle(oracleAddress);\n    }\n\n    /**\n     * @dev Modifier that only oracle operators may call\n     */\n    modifier onlyOracleOperator() {\n        require(\n            msg.sender == oracle.operator(),\n            \"Only the oracle operator may perform this action\"\n        );\n        _;\n    }\n\n    /**\n     * @dev Mints a new Punk given all slots\n     * @notice Only oracle operators may call this\n     */\n    function mint(\n        Species species,\n        Size size,\n        Ear ear,\n        Eyes eyes,\n        Face face,\n        FacialHair facialHair,\n        Head head,\n        Mouth mouth,\n        Neck neck,\n        Nose nose,\n        Smoke smoke\n    ) public onlyOracleOperator {\n        Punk memory punk = Punk(\n            species,\n            size,\n            ear,\n            eyes,\n            face,\n            facialHair,\n            head,\n            mouth,\n            neck,\n            nose,\n            smoke\n        );\n        punks.push(punk);\n    }\n\n    function getSpecies(uint256 punkId) public returns (Species) {\n        return punks[punkId].species;\n    }\n}\n",
  "sourcePath": "contracts/Punk.sol",
  "type": "contract"
}